{"abi":[{"type":"constructor","inputs":[{"name":"usdv_","type":"address","internalType":"contract ITIP20"},{"name":"settlementToken_","type":"address","internalType":"contract ITIP20"},{"name":"admin_","type":"address","internalType":"address"}],"stateMutability":"nonpayable"},{"type":"function","name":"admin","inputs":[],"outputs":[{"name":"","type":"address","internalType":"address"}],"stateMutability":"view"},{"type":"function","name":"adminSubscribe","inputs":[{"name":"recipient","type":"address","internalType":"address"},{"name":"fundingAmount","type":"uint256","internalType":"uint256"},{"name":"minUsdvOut","type":"uint256","internalType":"uint256"},{"name":"memo","type":"bytes32","internalType":"bytes32"}],"outputs":[{"name":"usdvOut","type":"uint256","internalType":"uint256"}],"stateMutability":"nonpayable"},{"type":"function","name":"redeem","inputs":[{"name":"usdvAmount","type":"uint256","internalType":"uint256"},{"name":"receivingToken","type":"address","internalType":"address"},{"name":"minTokenOut","type":"uint256","internalType":"uint256"}],"outputs":[{"name":"tokenOut","type":"uint256","internalType":"uint256"}],"stateMutability":"nonpayable"},{"type":"function","name":"setAdmin","inputs":[{"name":"newAdmin","type":"address","internalType":"address"}],"outputs":[],"stateMutability":"nonpayable"},{"type":"function","name":"settlementToken","inputs":[],"outputs":[{"name":"","type":"address","internalType":"contract ITIP20"}],"stateMutability":"view"},{"type":"function","name":"subscribe","inputs":[{"name":"fundingToken","type":"address","internalType":"address"},{"name":"fundingAmount","type":"uint256","internalType":"uint256"},{"name":"minUsdvOut","type":"uint256","internalType":"uint256"}],"outputs":[{"name":"usdvOut","type":"uint256","internalType":"uint256"}],"stateMutability":"nonpayable"},{"type":"function","name":"usdv","inputs":[],"outputs":[{"name":"","type":"address","internalType":"contract ITIP20"}],"stateMutability":"view"},{"type":"event","name":"AdminSubscribed","inputs":[{"name":"operator","type":"address","indexed":true,"internalType":"address"},{"name":"recipient","type":"address","indexed":true,"internalType":"address"},{"name":"fundingAmount","type":"uint256","indexed":false,"internalType":"uint256"},{"name":"usdvOut","type":"uint256","indexed":false,"internalType":"uint256"},{"name":"memo","type":"bytes32","indexed":false,"internalType":"bytes32"}],"anonymous":false},{"type":"event","name":"AdminUpdated","inputs":[{"name":"oldAdmin","type":"address","indexed":true,"internalType":"address"},{"name":"newAdmin","type":"address","indexed":true,"internalType":"address"}],"anonymous":false},{"type":"event","name":"Redeemed","inputs":[{"name":"user","type":"address","indexed":true,"internalType":"address"},{"name":"receivingToken","type":"address","indexed":true,"internalType":"address"},{"name":"usdvAmount","type":"uint256","indexed":false,"internalType":"uint256"},{"name":"tokenOut","type":"uint256","indexed":false,"internalType":"uint256"},{"name":"memo","type":"bytes32","indexed":false,"internalType":"bytes32"}],"anonymous":false},{"type":"event","name":"Subscribed","inputs":[{"name":"user","type":"address","indexed":true,"internalType":"address"},{"name":"fundingToken","type":"address","indexed":true,"internalType":"address"},{"name":"fundingAmount","type":"uint256","indexed":false,"internalType":"uint256"},{"name":"usdvOut","type":"uint256","indexed":false,"internalType":"uint256"},{"name":"memo","type":"bytes32","indexed":false,"internalType":"bytes32"}],"anonymous":false},{"type":"error","name":"InvalidAmount","inputs":[]},{"type":"error","name":"Slippage","inputs":[]},{"type":"error","name":"TransferFailed","inputs":[]},{"type":"error","name":"Unauthorized","inputs":[]},{"type":"error","name":"UnsupportedToken","inputs":[]},{"type":"error","name":"ZeroAddress","inputs":[]}],"bytecode":{"object":"0x60c060405234801561000f575f5ffd5b50604051610bb7380380610bb783398101604081905261002e916100bf565b6001600160a01b038316158061004b57506001600160a01b038216155b8061005d57506001600160a01b038116155b1561007b5760405163d92e233d60e01b815260040160405180910390fd5b6001600160a01b0392831660805290821660a0525f80546001600160a01b03191691909216179055610109565b6001600160a01b03811681146100bc575f5ffd5b50565b5f5f5f606084860312156100d1575f5ffd5b83516100dc816100a8565b60208501519093506100ed816100a8565b60408501519092506100fe816100a8565b809150509250925092565b60805160a051610a566101615f395f818160d10152818161015a0152818161020f015281816105b701526107be01525f8181610110015281816102f1015281816104680152818161066c01526107450152610a565ff3fe608060405234801561000f575f5ffd5b506004361061007a575f3560e01c80637b9e618d116100585780637b9e618d146100cc5780639420069c1461010b578063d878016114610132578063f851a44014610145575f5ffd5b806322d4a1751461007e5780635ea92739146100a4578063704b6c02146100b7575b5f5ffd5b61009161008c3660046108ee565b610157565b6040519081526020015b60405180910390f35b6100916100b236600461091e565b6103a7565b6100ca6100c5366004610954565b610515565b005b6100f37f000000000000000000000000000000000000000000000000000000000000000081565b6040516001600160a01b03909116815260200161009b565b6100f37f000000000000000000000000000000000000000000000000000000000000000081565b610091610140366004610974565b6105b4565b5f546100f3906001600160a01b031681565b5f7f00000000000000000000000000000000000000000000000000000000000000006001600160a01b0316846001600160a01b0316146101aa5760405163350b944160e11b815260040160405180910390fd5b825f036101ca5760405163162908e360e11b815260040160405180910390fd5b5081818110156101ed576040516307dd37f760e41b815260040160405180910390fd5b6040516323b872dd60e01b8152336004820152306024820152604481018490527f00000000000000000000000000000000000000000000000000000000000000006001600160a01b0316906323b872dd906064016020604051808303815f875af115801561025d573d5f5f3e3d5ffd5b505050506040513d601f19601f8201168201806040525081019061028191906109a7565b61029e576040516312171d8360e31b815260040160405180910390fd5b5f6102cb6040518060400160405280600981526020016853554253435249424560b81b815250338661089a565b604051637227858960e11b815233600482015260248101849052604481018290529091507f00000000000000000000000000000000000000000000000000000000000000006001600160a01b03169063e44f0b12906064015f604051808303815f87803b15801561033a575f5ffd5b505af115801561034c573d5f5f3e3d5ffd5b505060408051878152602081018690529081018490526001600160a01b03881692503391507fca7675a525e8b8d648ad4e3df0f2719498d94af3956e3f909babc680a99993df906060015b60405180910390a3509392505050565b5f80546001600160a01b031633146103d1576040516282b42960e81b815260040160405180910390fd5b6001600160a01b0385166103f85760405163d92e233d60e01b815260040160405180910390fd5b835f036104185760405163162908e360e11b815260040160405180910390fd5b50828281101561043b576040516307dd37f760e41b815260040160405180910390fd5b604051637227858960e11b81526001600160a01b03868116600483015260248201839052604482018490527f0000000000000000000000000000000000000000000000000000000000000000169063e44f0b12906064015f604051808303815f87803b1580156104a9575f5ffd5b505af11580156104bb573d5f5f3e3d5ffd5b505060408051878152602081018590529081018590526001600160a01b03881692503391507feaee89af6822b4886be46b7a078d0f0510fd36a7ad9c15046338f53ba68da3de9060600160405180910390a3949350505050565b5f546001600160a01b0316331461053e576040516282b42960e81b815260040160405180910390fd5b6001600160a01b0381166105655760405163d92e233d60e01b815260040160405180910390fd5b5f80546001600160a01b038381166001600160a01b0319831681178455604051919092169283917f101b8081ff3b56bbf45deb824d86a3b0fd38b7e3dd42421105cf8abe9106db0b9190a35050565b5f7f00000000000000000000000000000000000000000000000000000000000000006001600160a01b0316836001600160a01b0316146106075760405163350b944160e11b815260040160405180910390fd5b835f036106275760405163162908e360e11b815260040160405180910390fd5b50828181101561064a576040516307dd37f760e41b815260040160405180910390fd5b6040516323b872dd60e01b8152336004820152306024820152604481018590527f00000000000000000000000000000000000000000000000000000000000000006001600160a01b0316906323b872dd906064016020604051808303815f875af11580156106ba573d5f5f3e3d5ffd5b505050506040513d601f19601f820116820180604052508101906106de91906109a7565b6106fb576040516312171d8360e31b815260040160405180910390fd5b5f6107256040518060400160405280600681526020016552454445454d60d01b815250338761089a565b6040516338f23b0b60e01b815260048101879052602481018290529091507f00000000000000000000000000000000000000000000000000000000000000006001600160a01b0316906338f23b0b906044015f604051808303815f87803b15801561078e575f5ffd5b505af11580156107a0573d5f5f3e3d5ffd5b505060405163a9059cbb60e01b8152336004820152602481018590527f00000000000000000000000000000000000000000000000000000000000000006001600160a01b0316925063a9059cbb91506044016020604051808303815f875af115801561080e573d5f5f3e3d5ffd5b505050506040513d601f19601f8201168201806040525081019061083291906109a7565b61084f576040516312171d8360e31b815260040160405180910390fd5b60408051868152602081018490529081018290526001600160a01b0385169033907f6b14d0702fea65cc4ef4cd230bb9028de76f31e7afd9a0c17b674a548908149c90606001610397565b5f83838346436040516020016108b49594939291906109c6565b6040516020818303038152906040528051906020012090509392505050565b80356001600160a01b03811681146108e9575f5ffd5b919050565b5f5f5f60608486031215610900575f5ffd5b610909846108d3565b95602085013595506040909401359392505050565b5f5f5f5f60808587031215610931575f5ffd5b61093a856108d3565b966020860135965060408601359560600135945092505050565b5f60208284031215610964575f5ffd5b61096d826108d3565b9392505050565b5f5f5f60608486031215610986575f5ffd5b83359250610996602085016108d3565b929592945050506040919091013590565b5f602082840312156109b7575f5ffd5b8151801515811461096d575f5ffd5b60a081525f86518060a0840152806020890160c085015e5f60c08285018101919091526001600160a01b0397909716602084015260408301959095525060608101929092526080820152601f909101601f1916010191905056fea2646970667358221220d071957fb296f6dd98b3bca2532303b67da61bbbc1dc99c3de43ce52765ada1b64736f6c634300081b0033","linkReferences":{}},"methodIdentifiers":{"admin()":"f851a440","adminSubscribe(address,uint256,uint256,bytes32)":"5ea92739","redeem(uint256,address,uint256)":"d8780161","setAdmin(address)":"704b6c02","settlementToken()":"7b9e618d","subscribe(address,uint256,uint256)":"22d4a175","usdv()":"9420069c"},"id":0}