{"abi":[{"type":"constructor","inputs":[{"name":"admin_","type":"address","internalType":"address"}],"stateMutability":"nonpayable"},{"type":"function","name":"admin","inputs":[],"outputs":[{"name":"","type":"address","internalType":"address"}],"stateMutability":"view"},{"type":"function","name":"adminSubscribe","inputs":[{"name":"asset","type":"address","internalType":"address"},{"name":"recipient","type":"address","internalType":"address"},{"name":"fundingAmount","type":"uint256","internalType":"uint256"},{"name":"minAssetOut","type":"uint256","internalType":"uint256"},{"name":"memo","type":"bytes32","internalType":"bytes32"}],"outputs":[{"name":"assetOut","type":"uint256","internalType":"uint256"}],"stateMutability":"nonpayable"},{"type":"function","name":"redeem","inputs":[{"name":"asset","type":"address","internalType":"address"},{"name":"assetAmount","type":"uint256","internalType":"uint256"},{"name":"receivingToken","type":"address","internalType":"address"},{"name":"minTokenOut","type":"uint256","internalType":"uint256"}],"outputs":[{"name":"tokenOut","type":"uint256","internalType":"uint256"}],"stateMutability":"nonpayable"},{"type":"function","name":"registerRoute","inputs":[{"name":"asset","type":"address","internalType":"address"},{"name":"settlementToken","type":"address","internalType":"address"},{"name":"enabled","type":"bool","internalType":"bool"}],"outputs":[],"stateMutability":"nonpayable"},{"type":"function","name":"routeAt","inputs":[{"name":"index","type":"uint256","internalType":"uint256"}],"outputs":[{"name":"asset","type":"address","internalType":"address"}],"stateMutability":"view"},{"type":"function","name":"routeCount","inputs":[],"outputs":[{"name":"","type":"uint256","internalType":"uint256"}],"stateMutability":"view"},{"type":"function","name":"routeInfo","inputs":[{"name":"asset","type":"address","internalType":"address"}],"outputs":[{"name":"settlementToken","type":"address","internalType":"address"},{"name":"enabled","type":"bool","internalType":"bool"}],"stateMutability":"view"},{"type":"function","name":"setAdmin","inputs":[{"name":"newAdmin","type":"address","internalType":"address"}],"outputs":[],"stateMutability":"nonpayable"},{"type":"function","name":"setRouteEnabled","inputs":[{"name":"asset","type":"address","internalType":"address"},{"name":"enabled","type":"bool","internalType":"bool"}],"outputs":[],"stateMutability":"nonpayable"},{"type":"function","name":"subscribe","inputs":[{"name":"asset","type":"address","internalType":"address"},{"name":"fundingToken","type":"address","internalType":"address"},{"name":"fundingAmount","type":"uint256","internalType":"uint256"},{"name":"minAssetOut","type":"uint256","internalType":"uint256"}],"outputs":[{"name":"assetOut","type":"uint256","internalType":"uint256"}],"stateMutability":"nonpayable"},{"type":"event","name":"AdminSubscribed","inputs":[{"name":"asset","type":"address","indexed":true,"internalType":"address"},{"name":"operator","type":"address","indexed":true,"internalType":"address"},{"name":"recipient","type":"address","indexed":true,"internalType":"address"},{"name":"fundingAmount","type":"uint256","indexed":false,"internalType":"uint256"},{"name":"assetOut","type":"uint256","indexed":false,"internalType":"uint256"},{"name":"memo","type":"bytes32","indexed":false,"internalType":"bytes32"}],"anonymous":false},{"type":"event","name":"AdminUpdated","inputs":[{"name":"oldAdmin","type":"address","indexed":true,"internalType":"address"},{"name":"newAdmin","type":"address","indexed":true,"internalType":"address"}],"anonymous":false},{"type":"event","name":"Redeemed","inputs":[{"name":"asset","type":"address","indexed":true,"internalType":"address"},{"name":"user","type":"address","indexed":true,"internalType":"address"},{"name":"receivingToken","type":"address","indexed":true,"internalType":"address"},{"name":"assetAmount","type":"uint256","indexed":false,"internalType":"uint256"},{"name":"tokenOut","type":"uint256","indexed":false,"internalType":"uint256"},{"name":"memo","type":"bytes32","indexed":false,"internalType":"bytes32"}],"anonymous":false},{"type":"event","name":"RouteEnabled","inputs":[{"name":"asset","type":"address","indexed":true,"internalType":"address"},{"name":"enabled","type":"bool","indexed":false,"internalType":"bool"}],"anonymous":false},{"type":"event","name":"RouteRegistered","inputs":[{"name":"asset","type":"address","indexed":true,"internalType":"address"},{"name":"settlementToken","type":"address","indexed":true,"internalType":"address"},{"name":"enabled","type":"bool","indexed":false,"internalType":"bool"}],"anonymous":false},{"type":"event","name":"Subscribed","inputs":[{"name":"asset","type":"address","indexed":true,"internalType":"address"},{"name":"user","type":"address","indexed":true,"internalType":"address"},{"name":"fundingToken","type":"address","indexed":true,"internalType":"address"},{"name":"fundingAmount","type":"uint256","indexed":false,"internalType":"uint256"},{"name":"assetOut","type":"uint256","indexed":false,"internalType":"uint256"},{"name":"memo","type":"bytes32","indexed":false,"internalType":"bytes32"}],"anonymous":false},{"type":"error","name":"InvalidAmount","inputs":[]},{"type":"error","name":"RouteDisabled","inputs":[]},{"type":"error","name":"RouteMissing","inputs":[]},{"type":"error","name":"Slippage","inputs":[]},{"type":"error","name":"TransferFailed","inputs":[]},{"type":"error","name":"Unauthorized","inputs":[]},{"type":"error","name":"UnsupportedToken","inputs":[]},{"type":"error","name":"ZeroAddress","inputs":[]}],"bytecode":{"object":"0x6080604052348015600e575f5ffd5b50604051610eb7380380610eb7833981016040819052602b916074565b6001600160a01b03811660515760405163d92e233d60e01b815260040160405180910390fd5b5f80546001600160a01b0319166001600160a01b0392909216919091179055609f565b5f602082840312156083575f5ffd5b81516001600160a01b03811681146098575f5ffd5b9392505050565b610e0b806100ac5f395ff3fe608060405234801561000f575f5ffd5b506004361061009b575f3560e01c80637fb801be116100635780637fb801be14610132578063bf539cb414610145578063d71941641461014d578063f3f094a114610178578063f851a4401461018b575f5ffd5b806306451e811461009f5780630fdbbb22146100d65780632fd25bc8146100f75780634c4fbfce1461010c578063704b6c021461011f575b5f5ffd5b6100b26100ad366004610bb9565b61019d565b604080516001600160a01b0390931683529015156020830152015b60405180910390f35b6100e96100e4366004610bd9565b6101fa565b6040519081526020016100cd565b61010a610105366004610c32565b61035e565b005b61010a61011a366004610c76565b6104da565b61010a61012d366004610bb9565b6105a4565b6100e9610140366004610cab565b610643565b6002546100e9565b61016061015b366004610cea565b61084d565b6040516001600160a01b0390911681526020016100cd565b6100e9610186366004610d01565b61087b565b5f54610160906001600160a01b031681565b6001600160a01b038082165f908152600160205260408120805491928392166101d95760405163e9a9a3bd60e01b815260040160405180910390fd5b600101546001600160a01b03811694600160a01b90910460ff169350915050565b5f80546001600160a01b03163314610224576040516282b42960e81b815260040160405180910390fd5b5f61022e87610afc565b90506001600160a01b0386166102575760405163d92e233d60e01b815260040160405180910390fd5b845f036102775760405163162908e360e11b815260040160405180910390fd5b8491508382101561029b576040516307dd37f760e41b815260040160405180910390fd5b8054604051637227858960e11b81526001600160a01b03888116600483015260248201859052604482018690529091169063e44f0b12906064015f604051808303815f87803b1580156102ec575f5ffd5b505af11580156102fe573d5f5f3e3d5ffd5b505060408051888152602081018690529081018690526001600160a01b03808a1693503392508a16907f69e99bc00e24b689e31738d108ae62aca14a9e3430dc38e7084dd8ec33e0a72a9060600160405180910390a45095945050505050565b5f546001600160a01b03163314610387576040516282b42960e81b815260040160405180910390fd5b6001600160a01b03831615806103a457506001600160a01b038216155b156103c25760405163d92e233d60e01b815260040160405180910390fd5b6001600160a01b038381165f908152600160205260409020541661042b57600280546001810182555f919091527f405787fa12a823e0f2b7631cc41b3ba8828b3321ca811111fa75cd3aa3bb5ace0180546001600160a01b0319166001600160a01b0385161790555b604080516060810182526001600160a01b0385811680835285821660208085018281528715158688018181525f8681526001808652908a9020985189549089166001600160a01b0319909116178955925197909201805492511515600160a01b026001600160a81b03199093169790961696909617179093559351928352917f9ded2415b4ed07ba1d87e13610df1b43428f9046de7a9bdcce085ba4dae5fc5f910160405180910390a3505050565b5f546001600160a01b03163314610503576040516282b42960e81b815260040160405180910390fd5b6001600160a01b038083165f908152600160205260409020805490911661053d5760405163e9a9a3bd60e01b815260040160405180910390fd5b600181018054831515600160a01b0260ff60a01b199091161790556040516001600160a01b038416907f87e230d22e22e0399c3809e41b55bf3a5f470a6f2b335d6a29ab043b963f4e009061059790851515815260200190565b60405180910390a2505050565b5f546001600160a01b031633146105cd576040516282b42960e81b815260040160405180910390fd5b6001600160a01b0381166105f45760405163d92e233d60e01b815260040160405180910390fd5b5f80546001600160a01b038381166001600160a01b0319831681178455604051919092169283917f101b8081ff3b56bbf45deb824d86a3b0fd38b7e3dd42421105cf8abe9106db0b9190a35050565b5f5f61064e86610afc565b60018101549091506001600160a01b038681169116146106815760405163350b944160e11b815260040160405180910390fd5b835f036106a15760405163162908e360e11b815260040160405180910390fd5b839150828210156106c5576040516307dd37f760e41b815260040160405180910390fd5b60018101546040516323b872dd60e01b8152336004820152306024820152604481018690526001600160a01b03909116906323b872dd906064016020604051808303815f875af115801561071b573d5f5f3e3d5ffd5b505050506040513d601f19601f8201168201806040525081019061073f9190610d42565b61075c576040516312171d8360e31b815260040160405180910390fd5b5f61078a6040518060400160405280600981526020016853554253435249424560b81b815250883388610b67565b8254604051637227858960e11b815233600482015260248101869052604481018390529192506001600160a01b03169063e44f0b12906064015f604051808303815f87803b1580156107da575f5ffd5b505af11580156107ec573d5f5f3e3d5ffd5b505060408051888152602081018790529081018490526001600160a01b03808a1693503392508a16907f8b8cb354b037995ebf53cd1b39a7e612e726833eb13bf62226f7d9d1a05205f0906060015b60405180910390a45050949350505050565b5f6002828154811061086157610861610d5d565b5f918252602090912001546001600160a01b031692915050565b5f5f61088686610afc565b60018101549091506001600160a01b038581169116146108b95760405163350b944160e11b815260040160405180910390fd5b845f036108d95760405163162908e360e11b815260040160405180910390fd5b849150828210156108fd576040516307dd37f760e41b815260040160405180910390fd5b80546040516323b872dd60e01b8152336004820152306024820152604481018790526001600160a01b03909116906323b872dd906064016020604051808303815f875af1158015610950573d5f5f3e3d5ffd5b505050506040513d601f19601f820116820180604052508101906109749190610d42565b610991576040516312171d8360e31b815260040160405180910390fd5b5f6109bc6040518060400160405280600681526020016552454445454d60d01b815250883389610b67565b82546040516338f23b0b60e01b815260048101899052602481018390529192506001600160a01b0316906338f23b0b906044015f604051808303815f87803b158015610a06575f5ffd5b505af1158015610a18573d5f5f3e3d5ffd5b50505050600182015460405163a9059cbb60e01b8152336004820152602481018590526001600160a01b039091169063a9059cbb906044016020604051808303815f875af1158015610a6c573d5f5f3e3d5ffd5b505050506040513d601f19601f82011682018060405250810190610a909190610d42565b610aad576040516312171d8360e31b815260040160405180910390fd5b60408051878152602081018590529081018290526001600160a01b038087169133918a16907f4703d5ddbe5cc5f7fcaf58f8be437ae936b4318df00a60b8832bcaab73ac90e79060600161083b565b6001600160a01b038082165f9081526001602052604090208054909116610b365760405163e9a9a3bd60e01b815260040160405180910390fd5b6001810154600160a01b900460ff16610b62576040516317d0b6db60e01b815260040160405180910390fd5b919050565b5f848484844643604051602001610b8396959493929190610d71565b604051602081830303815290604052805190602001209050949350505050565b80356001600160a01b0381168114610b62575f5ffd5b5f60208284031215610bc9575f5ffd5b610bd282610ba3565b9392505050565b5f5f5f5f5f60a08688031215610bed575f5ffd5b610bf686610ba3565b9450610c0460208701610ba3565b94979496505050506040830135926060810135926080909101359150565b8015158114610c2f575f5ffd5b50565b5f5f5f60608486031215610c44575f5ffd5b610c4d84610ba3565b9250610c5b60208501610ba3565b91506040840135610c6b81610c22565b809150509250925092565b5f5f60408385031215610c87575f5ffd5b610c9083610ba3565b91506020830135610ca081610c22565b809150509250929050565b5f5f5f5f60808587031215610cbe575f5ffd5b610cc785610ba3565b9350610cd560208601610ba3565b93969395505050506040820135916060013590565b5f60208284031215610cfa575f5ffd5b5035919050565b5f5f5f5f60808587031215610d14575f5ffd5b610d1d85610ba3565b935060208501359250610d3260408601610ba3565b9396929550929360600135925050565b5f60208284031215610d52575f5ffd5b8151610bd281610c22565b634e487b7160e01b5f52603260045260245ffd5b60c081525f87518060c08401528060208a0160e085015e5f60e08285018101919091526001600160a01b039889166020850152969097166040830152506060810193909352608083019190915260a0820152601f909201601f19169091010191905056fea2646970667358221220771b26720dbc702a611691e4d0b2a957408875ca6fd8b4c5b7b4e82c0f37c27464736f6c634300081b0033","linkReferences":{}},"methodIdentifiers":{"admin()":"f851a440","adminSubscribe(address,address,uint256,uint256,bytes32)":"0fdbbb22","redeem(address,uint256,address,uint256)":"f3f094a1","registerRoute(address,address,bool)":"2fd25bc8","routeAt(uint256)":"d7194164","routeCount()":"bf539cb4","routeInfo(address)":"06451e81","setAdmin(address)":"704b6c02","setRouteEnabled(address,bool)":"4c4fbfce","subscribe(address,address,uint256,uint256)":"7fb801be"},"id":0}